{
  "contractName": "TokenTimelockProxy",
  "abi": [
    {
      "inputs": [
        {
          "internalType": "address",
          "name": "token_",
          "type": "address"
        },
        {
          "internalType": "address",
          "name": "implementation_",
          "type": "address"
        }
      ],
      "stateMutability": "nonpayable",
      "type": "constructor"
    },
    {
      "anonymous": false,
      "inputs": [
        {
          "indexed": true,
          "internalType": "address",
          "name": "locker",
          "type": "address"
        },
        {
          "indexed": true,
          "internalType": "address",
          "name": "beneficiary",
          "type": "address"
        },
        {
          "indexed": false,
          "internalType": "uint256",
          "name": "amount",
          "type": "uint256"
        },
        {
          "indexed": false,
          "internalType": "uint256",
          "name": "releaseTime",
          "type": "uint256"
        },
        {
          "indexed": true,
          "internalType": "address",
          "name": "timelockContractAddress",
          "type": "address"
        }
      ],
      "name": "TokensLocked",
      "type": "event"
    },
    {
      "inputs": [
        {
          "internalType": "uint256",
          "name": "",
          "type": "uint256"
        }
      ],
      "name": "_clonedContracts",
      "outputs": [
        {
          "internalType": "address",
          "name": "",
          "type": "address"
        }
      ],
      "stateMutability": "view",
      "type": "function",
      "constant": true
    },
    {
      "inputs": [
        {
          "internalType": "address",
          "name": "",
          "type": "address"
        },
        {
          "internalType": "uint256",
          "name": "",
          "type": "uint256"
        }
      ],
      "name": "_clonedContractsPerUser",
      "outputs": [
        {
          "internalType": "uint256",
          "name": "",
          "type": "uint256"
        }
      ],
      "stateMutability": "view",
      "type": "function",
      "constant": true
    },
    {
      "inputs": [
        {
          "internalType": "address",
          "name": "beneficiary_",
          "type": "address"
        },
        {
          "internalType": "uint256",
          "name": "amountToLock_",
          "type": "uint256"
        },
        {
          "internalType": "uint256",
          "name": "releaseTime_",
          "type": "uint256"
        }
      ],
      "name": "lockTokens",
      "outputs": [
        {
          "internalType": "address",
          "name": "",
          "type": "address"
        }
      ],
      "stateMutability": "nonpayable",
      "type": "function"
    },
    {
      "inputs": [
        {
          "internalType": "address",
          "name": "locker",
          "type": "address"
        }
      ],
      "name": "checkLocker",
      "outputs": [
        {
          "internalType": "address[]",
          "name": "",
          "type": "address[]"
        }
      ],
      "stateMutability": "view",
      "type": "function",
      "constant": true
    },
    {
      "inputs": [
        {
          "internalType": "address",
          "name": "locker",
          "type": "address"
        }
      ],
      "name": "checkLockerReleaseTimesAndBalances",
      "outputs": [
        {
          "internalType": "uint256[]",
          "name": "",
          "type": "uint256[]"
        },
        {
          "internalType": "uint256[]",
          "name": "",
          "type": "uint256[]"
        }
      ],
      "stateMutability": "view",
      "type": "function",
      "constant": true
    }
  ],
  "bytecode": "0x60c060405234801561001057600080fd5b50604051610e6c380380610e6c83398101604081905261002f9161006a565b6001600160601b0319606091821b811660a05291901b1660805261009c565b80516001600160a01b038116811461006557600080fd5b919050565b6000806040838503121561007c578182fd5b6100858361004e565b91506100936020840161004e565b90509250929050565b60805160601c60a05160601c610d976100d560003960006105de0152600081816104f701528181610619015261069d0152610d976000f3fe608060405234801561001057600080fd5b50600436106100575760003560e01c80633e7929601461005c57806354bb83c11461008c5780635d964aed146100ad578063a25983e5146100cd578063aa55a599146100e0575b600080fd5b61006f61006a366004610bb9565b610101565b6040516001600160a01b0390911681526020015b60405180910390f35b61009f61009a366004610b24565b61012b565b604051610083929190610c8c565b6100c06100bb366004610b24565b610398565b6040516100839190610c3f565b61006f6100db366004610b67565b6104cf565b6100f36100ee366004610b3e565b610790565b604051908152602001610083565b6000818154811061011157600080fd5b6000918252602090912001546001600160a01b0316905081565b606080600061013984610398565b90506000815167ffffffffffffffff81111561016557634e487b7160e01b600052604160045260246000fd5b60405190808252806020026020018201604052801561018e578160200160208202803683370190505b5090506000825167ffffffffffffffff8111156101bb57634e487b7160e01b600052604160045260246000fd5b6040519080825280602002602001820160405280156101e4578160200160208202803683370190505b50905060005b835181101561038c5783818151811061021357634e487b7160e01b600052603260045260246000fd5b60200260200101516001600160a01b031663b91d40016040518163ffffffff1660e01b815260040160206040518083038186803b15801561025357600080fd5b505afa158015610267573d6000803e3d6000fd5b505050506040513d601f19601f8201168201806040525081019061028b9190610bd1565b8382815181106102ab57634e487b7160e01b600052603260045260246000fd5b6020026020010181815250508381815181106102d757634e487b7160e01b600052603260045260246000fd5b60200260200101516001600160a01b031663e9932b8a6040518163ffffffff1660e01b815260040160206040518083038186803b15801561031757600080fd5b505afa15801561032b573d6000803e3d6000fd5b505050506040513d601f19601f8201168201806040525081019061034f9190610bd1565b82828151811061036f57634e487b7160e01b600052603260045260246000fd5b60209081029190910101528061038481610d30565b9150506101ea565b50909590945092505050565b6001600160a01b038116600090815260016020526040812080546060929067ffffffffffffffff8111156103dc57634e487b7160e01b600052604160045260246000fd5b604051908082528060200260200182016040528015610405578160200160208202803683370190505b50905060005b82548110156104c757600083828154811061043657634e487b7160e01b600052603260045260246000fd5b90600052602060002001548154811061045f57634e487b7160e01b600052603260045260246000fd5b9060005260206000200160009054906101000a90046001600160a01b031682828151811061049d57634e487b7160e01b600052603260045260246000fd5b6001600160a01b0390921660209283029190910190910152806104bf81610d30565b91505061040b565b509392505050565b604051636eb1769f60e11b815233600482015230602482015260009083906001600160a01b037f0000000000000000000000000000000000000000000000000000000000000000169063dd62ed3e9060440160206040518083038186803b15801561053957600080fd5b505afa15801561054d573d6000803e3d6000fd5b505050506040513d601f19601f820116820180604052508101906105719190610bd1565b10156105d75760405162461bcd60e51b815260206004820152602a60248201527f546f6b656e54696d656c6f636b50726f78793a20496e73756666696369656e7460448201526920416c6c6f77616e636560b01b60648201526084015b60405180910390fd5b60006106027f00000000000000000000000000000000000000000000000000000000000000006107c1565b6040516305e52ecf60e21b81526001600160a01b037f00000000000000000000000000000000000000000000000000000000000000008116600483015287811660248301526044820186905291925090821690631794bb3c90606401600060405180830381600087803b15801561067857600080fd5b505af115801561068c573d6000803e3d6000fd5b506106c79250506001600160a01b037f000000000000000000000000000000000000000000000000000000000000000016905033838761085e565b60008054600180820183557f290decd9548b62a8d60345a988386fc84ba6bc95484008f6362f93160ef3e56390910180546001600160a01b0319166001600160a01b03851617905533825260208190526040822091546107279190610ced565b815460018101835560009283526020928390200155604080518681529182018590526001600160a01b03838116929088169133917ff7aa69cd485fde9c9b49cd60916758667326bd63512aa3e3cf17eca4ddd67cc1910160405180910390a490505b9392505050565b600160205281600052604060002081815481106107ac57600080fd5b90600052602060002001600091509150505481565b6000604051733d602d80600a3d3981f3363d3d373d3d3d363d7360601b81528260601b60148201526e5af43d82803e903d91602b57fd5bf360881b60288201526037816000f09150506001600160a01b0381166108595760405162461bcd60e51b8152602060048201526016602482015275115490cc4c4d8dce8818dc99585d194819985a5b195960521b60448201526064016105ce565b919050565b604080516001600160a01b0385811660248301528416604482015260648082018490528251808303909101815260849091019091526020810180516001600160e01b03166323b872dd60e01b1790526108b89085906108be565b50505050565b6000610913826040518060400160405280602081526020017f5361666545524332303a206c6f772d6c6576656c2063616c6c206661696c6564815250856001600160a01b03166109959092919063ffffffff16565b80519091501561099057808060200190518101906109319190610b99565b6109905760405162461bcd60e51b815260206004820152602a60248201527f5361666545524332303a204552433230206f7065726174696f6e20646964206e6044820152691bdd081cdd58d8d9595960b21b60648201526084016105ce565b505050565b60606109a484846000856109ac565b949350505050565b606082471015610a0d5760405162461bcd60e51b815260206004820152602660248201527f416464726573733a20696e73756666696369656e742062616c616e636520666f6044820152651c8818d85b1b60d21b60648201526084016105ce565b843b610a5b5760405162461bcd60e51b815260206004820152601d60248201527f416464726573733a2063616c6c20746f206e6f6e2d636f6e747261637400000060448201526064016105ce565b600080866001600160a01b03168587604051610a779190610c23565b60006040518083038185875af1925050503d8060008114610ab4576040519150601f19603f3d011682016040523d82523d6000602084013e610ab9565b606091505b5091509150610ac9828286610ad4565b979650505050505050565b60608315610ae3575081610789565b825115610af35782518084602001fd5b8160405162461bcd60e51b81526004016105ce9190610cba565b80356001600160a01b038116811461085957600080fd5b600060208284031215610b35578081fd5b61078982610b0d565b60008060408385031215610b50578081fd5b610b5983610b0d565b946020939093013593505050565b600080600060608486031215610b7b578081fd5b610b8484610b0d565b95602085013595506040909401359392505050565b600060208284031215610baa578081fd5b81518015158114610789578182fd5b600060208284031215610bca578081fd5b5035919050565b600060208284031215610be2578081fd5b5051919050565b6000815180845260208085019450808401835b83811015610c1857815187529582019590820190600101610bfc565b509495945050505050565b60008251610c35818460208701610d04565b9190910192915050565b6020808252825182820181905260009190848201906040850190845b81811015610c805783516001600160a01b031683529284019291840191600101610c5b565b50909695505050505050565b604081526000610c9f6040830185610be9565b8281036020840152610cb18185610be9565b95945050505050565b6020815260008251806020840152610cd9816040850160208701610d04565b601f01601f19169190910160400192915050565b600082821015610cff57610cff610d4b565b500390565b60005b83811015610d1f578181015183820152602001610d07565b838111156108b85750506000910152565b6000600019821415610d4457610d44610d4b565b5060010190565b634e487b7160e01b600052601160045260246000fdfea2646970667358221220d481d51f840300fb54e87b11393e05662bf7018406ab3c568aa7cb23aa9e553264736f6c63430008040033",
  "immutableReferences": {
    "845": [
      {
        "length": 32,
        "start": 1271
      },
      {
        "length": 32,
        "start": 1561
      },
      {
        "length": 32,
        "start": 1693
      }
    ],
    "847": [
      {
        "length": 32,
        "start": 1502
      }
    ]
  },
  "source": "// SPDX-License-Identifier: MIT\n\npragma solidity ^0.8.0;\n\n/**\n * @dev Interface of the ERC20 standard as defined in the EIP.\n */\ninterface IERC20Upgradeable {\n    /**\n     * @dev Returns the amount of tokens in existence.\n     */\n    function totalSupply() external view returns (uint256);\n\n    /**\n     * @dev Returns the amount of tokens owned by `account`.\n     */\n    function balanceOf(address account) external view returns (uint256);\n\n    /**\n     * @dev Moves `amount` tokens from the caller's account to `recipient`.\n     *\n     * Returns a boolean value indicating whether the operation succeeded.\n     *\n     * Emits a {Transfer} event.\n     */\n    function transfer(address recipient, uint256 amount) external returns (bool);\n\n    /**\n     * @dev Returns the remaining number of tokens that `spender` will be\n     * allowed to spend on behalf of `owner` through {transferFrom}. This is\n     * zero by default.\n     *\n     * This value changes when {approve} or {transferFrom} are called.\n     */\n    function allowance(address owner, address spender) external view returns (uint256);\n\n    /**\n     * @dev Sets `amount` as the allowance of `spender` over the caller's tokens.\n     *\n     * Returns a boolean value indicating whether the operation succeeded.\n     *\n     * IMPORTANT: Beware that changing an allowance with this method brings the risk\n     * that someone may use both the old and the new allowance by unfortunate\n     * transaction ordering. One possible solution to mitigate this race\n     * condition is to first reduce the spender's allowance to 0 and set the\n     * desired value afterwards:\n     * https://github.com/ethereum/EIPs/issues/20#issuecomment-263524729\n     *\n     * Emits an {Approval} event.\n     */\n    function approve(address spender, uint256 amount) external returns (bool);\n\n    /**\n     * @dev Moves `amount` tokens from `sender` to `recipient` using the\n     * allowance mechanism. `amount` is then deducted from the caller's\n     * allowance.\n     *\n     * Returns a boolean value indicating whether the operation succeeded.\n     *\n     * Emits a {Transfer} event.\n     */\n    function transferFrom(address sender, address recipient, uint256 amount) external returns (bool);\n\n    /**\n     * @dev Emitted when `value` tokens are moved from one account (`from`) to\n     * another (`to`).\n     *\n     * Note that `value` may be zero.\n     */\n    event Transfer(address indexed from, address indexed to, uint256 value);\n\n    /**\n     * @dev Emitted when the allowance of a `spender` for an `owner` is set by\n     * a call to {approve}. `value` is the new allowance.\n     */\n    event Approval(address indexed owner, address indexed spender, uint256 value);\n}\n\n\n\n/**\n * @dev Collection of functions related to the address type\n */\nlibrary AddressUpgradeable {\n    /**\n     * @dev Returns true if `account` is a contract.\n     *\n     * [IMPORTANT]\n     * ====\n     * It is unsafe to assume that an address for which this function returns\n     * false is an externally-owned account (EOA) and not a contract.\n     *\n     * Among others, `isContract` will return false for the following\n     * types of addresses:\n     *\n     *  - an externally-owned account\n     *  - a contract in construction\n     *  - an address where a contract will be created\n     *  - an address where a contract lived, but was destroyed\n     * ====\n     */\n    function isContract(address account) internal view returns (bool) {\n        // This method relies on extcodesize, which returns 0 for contracts in\n        // construction, since the code is only stored at the end of the\n        // constructor execution.\n\n        uint256 size;\n        // solhint-disable-next-line no-inline-assembly\n        assembly { size := extcodesize(account) }\n        return size > 0;\n    }\n\n    /**\n     * @dev Replacement for Solidity's `transfer`: sends `amount` wei to\n     * `recipient`, forwarding all available gas and reverting on errors.\n     *\n     * https://eips.ethereum.org/EIPS/eip-1884[EIP1884] increases the gas cost\n     * of certain opcodes, possibly making contracts go over the 2300 gas limit\n     * imposed by `transfer`, making them unable to receive funds via\n     * `transfer`. {sendValue} removes this limitation.\n     *\n     * https://diligence.consensys.net/posts/2019/09/stop-using-soliditys-transfer-now/[Learn more].\n     *\n     * IMPORTANT: because control is transferred to `recipient`, care must be\n     * taken to not create reentrancy vulnerabilities. Consider using\n     * {ReentrancyGuard} or the\n     * https://solidity.readthedocs.io/en/v0.5.11/security-considerations.html#use-the-checks-effects-interactions-pattern[checks-effects-interactions pattern].\n     */\n    function sendValue(address payable recipient, uint256 amount) internal {\n        require(address(this).balance >= amount, \"Address: insufficient balance\");\n\n        // solhint-disable-next-line avoid-low-level-calls, avoid-call-value\n        (bool success, ) = recipient.call{ value: amount }(\"\");\n        require(success, \"Address: unable to send value, recipient may have reverted\");\n    }\n\n    /**\n     * @dev Performs a Solidity function call using a low level `call`. A\n     * plain`call` is an unsafe replacement for a function call: use this\n     * function instead.\n     *\n     * If `target` reverts with a revert reason, it is bubbled up by this\n     * function (like regular Solidity function calls).\n     *\n     * Returns the raw returned data. To convert to the expected return value,\n     * use https://solidity.readthedocs.io/en/latest/units-and-global-variables.html?highlight=abi.decode#abi-encoding-and-decoding-functions[`abi.decode`].\n     *\n     * Requirements:\n     *\n     * - `target` must be a contract.\n     * - calling `target` with `data` must not revert.\n     *\n     * _Available since v3.1._\n     */\n    function functionCall(address target, bytes memory data) internal returns (bytes memory) {\n      return functionCall(target, data, \"Address: low-level call failed\");\n    }\n\n    /**\n     * @dev Same as {xref-Address-functionCall-address-bytes-}[`functionCall`], but with\n     * `errorMessage` as a fallback revert reason when `target` reverts.\n     *\n     * _Available since v3.1._\n     */\n    function functionCall(address target, bytes memory data, string memory errorMessage) internal returns (bytes memory) {\n        return functionCallWithValue(target, data, 0, errorMessage);\n    }\n\n    /**\n     * @dev Same as {xref-Address-functionCall-address-bytes-}[`functionCall`],\n     * but also transferring `value` wei to `target`.\n     *\n     * Requirements:\n     *\n     * - the calling contract must have an ETH balance of at least `value`.\n     * - the called Solidity function must be `payable`.\n     *\n     * _Available since v3.1._\n     */\n    function functionCallWithValue(address target, bytes memory data, uint256 value) internal returns (bytes memory) {\n        return functionCallWithValue(target, data, value, \"Address: low-level call with value failed\");\n    }\n\n    /**\n     * @dev Same as {xref-Address-functionCallWithValue-address-bytes-uint256-}[`functionCallWithValue`], but\n     * with `errorMessage` as a fallback revert reason when `target` reverts.\n     *\n     * _Available since v3.1._\n     */\n    function functionCallWithValue(address target, bytes memory data, uint256 value, string memory errorMessage) internal returns (bytes memory) {\n        require(address(this).balance >= value, \"Address: insufficient balance for call\");\n        require(isContract(target), \"Address: call to non-contract\");\n\n        // solhint-disable-next-line avoid-low-level-calls\n        (bool success, bytes memory returndata) = target.call{ value: value }(data);\n        return _verifyCallResult(success, returndata, errorMessage);\n    }\n\n    /**\n     * @dev Same as {xref-Address-functionCall-address-bytes-}[`functionCall`],\n     * but performing a static call.\n     *\n     * _Available since v3.3._\n     */\n    function functionStaticCall(address target, bytes memory data) internal view returns (bytes memory) {\n        return functionStaticCall(target, data, \"Address: low-level static call failed\");\n    }\n\n    /**\n     * @dev Same as {xref-Address-functionCall-address-bytes-string-}[`functionCall`],\n     * but performing a static call.\n     *\n     * _Available since v3.3._\n     */\n    function functionStaticCall(address target, bytes memory data, string memory errorMessage) internal view returns (bytes memory) {\n        require(isContract(target), \"Address: static call to non-contract\");\n\n        // solhint-disable-next-line avoid-low-level-calls\n        (bool success, bytes memory returndata) = target.staticcall(data);\n        return _verifyCallResult(success, returndata, errorMessage);\n    }\n\n    function _verifyCallResult(bool success, bytes memory returndata, string memory errorMessage) private pure returns(bytes memory) {\n        if (success) {\n            return returndata;\n        } else {\n            // Look for revert reason and bubble it up if present\n            if (returndata.length > 0) {\n                // The easiest way to bubble the revert reason is using memory via assembly\n\n                // solhint-disable-next-line no-inline-assembly\n                assembly {\n                    let returndata_size := mload(returndata)\n                    revert(add(32, returndata), returndata_size)\n                }\n            } else {\n                revert(errorMessage);\n            }\n        }\n    }\n}\n\n\n/**\n * @title SafeERC20\n * @dev Wrappers around ERC20 operations that throw on failure (when the token\n * contract returns false). Tokens that return no value (and instead revert or\n * throw on failure) are also supported, non-reverting calls are assumed to be\n * successful.\n * To use this library you can add a `using SafeERC20 for IERC20;` statement to your contract,\n * which allows you to call the safe operations as `token.safeTransfer(...)`, etc.\n */\nlibrary SafeERC20Upgradeable {\n    using AddressUpgradeable for address;\n\n    function safeTransfer(IERC20Upgradeable token, address to, uint256 value) internal {\n        _callOptionalReturn(token, abi.encodeWithSelector(token.transfer.selector, to, value));\n    }\n\n    function safeTransferFrom(IERC20Upgradeable token, address from, address to, uint256 value) internal {\n        _callOptionalReturn(token, abi.encodeWithSelector(token.transferFrom.selector, from, to, value));\n    }\n\n    /**\n     * @dev Deprecated. This function has issues similar to the ones found in\n     * {IERC20-approve}, and its usage is discouraged.\n     *\n     * Whenever possible, use {safeIncreaseAllowance} and\n     * {safeDecreaseAllowance} instead.\n     */\n    function safeApprove(IERC20Upgradeable token, address spender, uint256 value) internal {\n        // safeApprove should only be called when setting an initial allowance,\n        // or when resetting it to zero. To increase and decrease it, use\n        // 'safeIncreaseAllowance' and 'safeDecreaseAllowance'\n        // solhint-disable-next-line max-line-length\n        require((value == 0) || (token.allowance(address(this), spender) == 0),\n            \"SafeERC20: approve from non-zero to non-zero allowance\"\n        );\n        _callOptionalReturn(token, abi.encodeWithSelector(token.approve.selector, spender, value));\n    }\n\n    function safeIncreaseAllowance(IERC20Upgradeable token, address spender, uint256 value) internal {\n        uint256 newAllowance = token.allowance(address(this), spender) + value;\n        _callOptionalReturn(token, abi.encodeWithSelector(token.approve.selector, spender, newAllowance));\n    }\n\n    function safeDecreaseAllowance(IERC20Upgradeable token, address spender, uint256 value) internal {\n        unchecked {\n            uint256 oldAllowance = token.allowance(address(this), spender);\n            require(oldAllowance >= value, \"SafeERC20: decreased allowance below zero\");\n            uint256 newAllowance = oldAllowance - value;\n            _callOptionalReturn(token, abi.encodeWithSelector(token.approve.selector, spender, newAllowance));\n        }\n    }\n\n    /**\n     * @dev Imitates a Solidity high-level call (i.e. a regular function call to a contract), relaxing the requirement\n     * on the return value: the return value is optional (but if data is returned, it must not be false).\n     * @param token The token targeted by the call.\n     * @param data The call data (encoded using abi.encode or one of its variants).\n     */\n    function _callOptionalReturn(IERC20Upgradeable token, bytes memory data) private {\n        // We need to perform a low level call here, to bypass Solidity's return data size checking mechanism, since\n        // we're implementing it ourselves. We use {Address.functionCall} to perform this call, which verifies that\n        // the target address contains contract code and also asserts for success in the low-level call.\n\n        bytes memory returndata = address(token).functionCall(data, \"SafeERC20: low-level call failed\");\n        if (returndata.length > 0) { // Return data is optional\n            // solhint-disable-next-line max-line-length\n            require(abi.decode(returndata, (bool)), \"SafeERC20: ERC20 operation did not succeed\");\n        }\n    }\n}\n\n\n/**\n * @dev This is a base contract to aid in writing upgradeable contracts, or any kind of contract that will be deployed\n * behind a proxy. Since a proxied contract can't have a constructor, it's common to move constructor logic to an\n * external initializer function, usually called `initialize`. It then becomes necessary to protect this initializer\n * function so it can only be called once. The {initializer} modifier provided by this contract will have this effect.\n *\n * TIP: To avoid leaving the proxy in an uninitialized state, the initializer function should be called as early as\n * possible by providing the encoded function call as the `_data` argument to {ERC1967Proxy-constructor}.\n *\n * CAUTION: When used with inheritance, manual care must be taken to not invoke a parent initializer twice, or to ensure\n * that all initializers are idempotent. This is not verified automatically as constructors are by Solidity.\n */\nabstract contract Initializable {\n    /**\n     * @dev Indicates that the contract has been initialized.\n     */\n    bool private _initialized;\n\n    /**\n     * @dev Indicates that the contract is in the process of being initialized.\n     */\n    bool private _initializing;\n\n    /**\n     * @dev Modifier to protect an initializer function from being invoked twice.\n     */\n    modifier initializer() {\n        require(\n            _initializing || !_initialized,\n            \"Initializable: contract is already initialized\"\n        );\n\n        bool isTopLevelCall = !_initializing;\n        if (isTopLevelCall) {\n            _initializing = true;\n            _initialized = true;\n        }\n\n        _;\n\n        if (isTopLevelCall) {\n            _initializing = false;\n        }\n    }\n}\n\n/**\n * @dev A token holder contract that will allow a beneficiary to extract the\n * tokens after a given release time.\n *\n * Useful for simple vesting schedules like \"advisors get all of their tokens\n * after 1 year\".\n */\ncontract TokenTimelockUpgradeable is Initializable {\n    using SafeERC20Upgradeable for IERC20Upgradeable;\n\n    // ERC20 basic token contract being held\n    IERC20Upgradeable private _token;\n\n    // beneficiary of tokens after they are released\n    address private _beneficiary;\n\n    // timestamp when token release is enabled\n    uint256 private _releaseTime;\n\n    function __TokenTimelock_init(\n        IERC20Upgradeable token_,\n        address beneficiary_,\n        uint256 releaseTime_\n    ) internal initializer {\n        __TokenTimelock_init_unchained(token_, beneficiary_, releaseTime_);\n    }\n\n    function __TokenTimelock_init_unchained(\n        IERC20Upgradeable token_,\n        address beneficiary_,\n        uint256 releaseTime_\n    ) internal initializer {\n        // solhint-disable-next-line not-rely-on-time\n        require(\n            releaseTime_ > block.timestamp,\n            \"TokenTimelock: release time is before current time\"\n        );\n        _token = token_;\n        _beneficiary = beneficiary_;\n        _releaseTime = releaseTime_;\n    }\n\n    /**\n     * @return the token being held.\n     */\n    function token() public view virtual returns (IERC20Upgradeable) {\n        return _token;\n    }\n\n    /**\n     * @return the beneficiary of the tokens.\n     */\n    function beneficiary() public view virtual returns (address) {\n        return _beneficiary;\n    }\n\n    /**\n     * @return the time when the tokens are released.\n     */\n    function releaseTime() public view virtual returns (uint256) {\n        return _releaseTime;\n    }\n\n    /**\n     * @notice Transfers tokens held by timelock to beneficiary.\n     */\n    function release() public virtual {\n        // solhint-disable-next-line not-rely-on-time\n        require(\n            block.timestamp >= releaseTime(),\n            \"TokenTimelock: current time is before release time\"\n        );\n\n        uint256 amount = token().balanceOf(address(this));\n        require(amount > 0, \"TokenTimelock: no tokens to release\");\n\n        token().safeTransfer(beneficiary(), amount);\n    }\n\n    uint256[50] private __gap;\n}\n\ncontract SimpleTimelockUpgradeable is TokenTimelockUpgradeable {\n    function initialize(\n        address token_,\n        address beneficiary_,\n        uint256 releaseTime_\n    ) public initializer {\n        __TokenTimelock_init(\n            IERC20Upgradeable(token_),\n            beneficiary_,\n            releaseTime_\n        );\n    }\n\n    function balanceLocked() public view returns (uint256) {\n        return token().balanceOf(address(this));\n    }\n}\n\n\n/**\n * @dev https://eips.ethereum.org/EIPS/eip-1167[EIP 1167] is a standard for\n * deploying minimal proxy contracts, also known as \"clones\".\n *\n * > To simply and cheaply clone contract functionality in an immutable way, this standard specifies\n * > a minimal bytecode implementation that delegates all calls to a known, fixed address.\n *\n * The library includes functions to deploy a proxy using either `create` (traditional deployment) or `create2`\n * (salted deterministic deployment). It also includes functions to predict the addresses of clones deployed using the\n * deterministic method.\n *\n * _Available since v3.4._\n */\nlibrary ClonesUpgradeable {\n    /**\n     * @dev Deploys and returns the address of a clone that mimics the behaviour of `implementation`.\n     *\n     * This function uses the create opcode, which should never revert.\n     */\n    function clone(address implementation) internal returns (address instance) {\n        // solhint-disable-next-line no-inline-assembly\n        assembly {\n            let ptr := mload(0x40)\n            mstore(ptr, 0x3d602d80600a3d3981f3363d3d373d3d3d363d73000000000000000000000000)\n            mstore(add(ptr, 0x14), shl(0x60, implementation))\n            mstore(add(ptr, 0x28), 0x5af43d82803e903d91602b57fd5bf30000000000000000000000000000000000)\n            instance := create(0, ptr, 0x37)\n        }\n        require(instance != address(0), \"ERC1167: create failed\");\n    }\n\n    /**\n     * @dev Deploys and returns the address of a clone that mimics the behaviour of `implementation`.\n     *\n     * This function uses the create2 opcode and a `salt` to deterministically deploy\n     * the clone. Using the same `implementation` and `salt` multiple time will revert, since\n     * the clones cannot be deployed twice at the same address.\n     */\n    function cloneDeterministic(address implementation, bytes32 salt) internal returns (address instance) {\n        // solhint-disable-next-line no-inline-assembly\n        assembly {\n            let ptr := mload(0x40)\n            mstore(ptr, 0x3d602d80600a3d3981f3363d3d373d3d3d363d73000000000000000000000000)\n            mstore(add(ptr, 0x14), shl(0x60, implementation))\n            mstore(add(ptr, 0x28), 0x5af43d82803e903d91602b57fd5bf30000000000000000000000000000000000)\n            instance := create2(0, ptr, 0x37, salt)\n        }\n        require(instance != address(0), \"ERC1167: create2 failed\");\n    }\n\n    /**\n     * @dev Computes the address of a clone deployed using {Clones-cloneDeterministic}.\n     */\n    function predictDeterministicAddress(address implementation, bytes32 salt, address deployer) internal pure returns (address predicted) {\n        // solhint-disable-next-line no-inline-assembly\n        assembly {\n            let ptr := mload(0x40)\n            mstore(ptr, 0x3d602d80600a3d3981f3363d3d373d3d3d363d73000000000000000000000000)\n            mstore(add(ptr, 0x14), shl(0x60, implementation))\n            mstore(add(ptr, 0x28), 0x5af43d82803e903d91602b57fd5bf3ff00000000000000000000000000000000)\n            mstore(add(ptr, 0x38), shl(0x60, deployer))\n            mstore(add(ptr, 0x4c), salt)\n            mstore(add(ptr, 0x6c), keccak256(ptr, 0x37))\n            predicted := keccak256(add(ptr, 0x37), 0x55)\n        }\n    }\n\n    /**\n     * @dev Computes the address of a clone deployed using {Clones-cloneDeterministic}.\n     */\n    function predictDeterministicAddress(address implementation, bytes32 salt) internal view returns (address predicted) {\n        return predictDeterministicAddress(implementation, salt, address(this));\n    }\n}\n\n\n/**\n * @dev A token timelock proxy to create ERC20 token timelock contracts\n * for several addresses.\n *\n */\ncontract TokenTimelockProxy {\n    using SafeERC20Upgradeable for IERC20Upgradeable;\n\n    // Token to lock on chain contract\n    address immutable _tokenToLock;\n\n    // Token Timelock on chain contract\n    address immutable _implementation;\n\n    // List of cloned Timelock contracts\n    address[] public _clonedContracts;\n\n    // List of cloned Timelock contracts per address\n    mapping(address => uint256[]) public _clonedContractsPerUser;\n\n    /**\n     * @dev Emitted when the a `locker` locks an `amount` of tokens for \n     * a `beneficiary` until the `releaseTime` through a newly generated \n     * Timelock contract at the address `timelockContractAddress` \n     */\n    event TokensLocked(address indexed locker, address indexed beneficiary, uint256 amount, uint256 releaseTime, address indexed timelockContractAddress);\n\n    constructor(address token_, address implementation_) {\n        _implementation = implementation_;\n        _tokenToLock = token_;\n    }\n\n    /**\n     * @dev Creates a new Timelock contract\n     * @return the contract address\n     */\n    function lockTokens(\n        address beneficiary_,\n        uint256 amountToLock_,\n        uint256 releaseTime_\n    ) public returns (address) {\n        // Checks if the msg sender has allowed this contract to transfer \n        // the amount amountToLock_\n        require(\n            IERC20Upgradeable(_tokenToLock).allowance(\n                msg.sender,\n                address(this)\n            ) >= amountToLock_,\n            \"TokenTimelockProxy: Insufficient Allowance\"\n        );\n\n        // Creates a new TimeLock Contract by making a clone\n        address clone = ClonesUpgradeable.clone(_implementation);\n        SimpleTimelockUpgradeable(clone).initialize(\n            _tokenToLock,\n            beneficiary_,\n            releaseTime_\n        );\n\n        // Transfers the amount amountToLock_ to the TimeLock Contract\n        IERC20Upgradeable(_tokenToLock).safeTransferFrom(\n            msg.sender,\n            clone,\n            amountToLock_\n        );\n\n        // Stores contract clone reference\n        _clonedContracts.push(clone);\n        _clonedContractsPerUser[msg.sender].push(_clonedContracts.length - 1);\n\n        emit TokensLocked(msg.sender,beneficiary_,amountToLock_,releaseTime_,clone);\n\n        return clone;\n    }\n\n    function checkLocker(address locker)\n        public\n        view\n        returns (address[] memory)\n    {\n        uint256[] storage clonedIds = _clonedContractsPerUser[locker];\n        address[] memory lockerClonesAddresses =\n            new address[](clonedIds.length);\n\n        for (uint256 i = 0; i < clonedIds.length; i++) {\n            lockerClonesAddresses[i] = (_clonedContracts[clonedIds[i]]);\n        }\n\n        return lockerClonesAddresses;\n    }\n\n    function checkLockerReleaseTimesAndBalances(address locker)\n        public\n        view\n        returns (uint256[] memory, uint256[] memory)\n    {\n        address[] memory lockerClonesAddresses = checkLocker(locker);\n        uint256[] memory releaseTimes =\n            new uint256[](lockerClonesAddresses.length);\n        uint256[] memory balances = new uint256[](lockerClonesAddresses.length);\n\n        for (uint256 i = 0; i < lockerClonesAddresses.length; i++) {\n            releaseTimes[i] = SimpleTimelockUpgradeable(\n                lockerClonesAddresses[i]\n            )\n                .releaseTime();\n            balances[i] = SimpleTimelockUpgradeable(lockerClonesAddresses[i])\n                .balanceLocked();\n        }\n\n        return (releaseTimes, balances);\n    }\n}\n",
  "sourcePath": "/home/miker/workspace/others/badicoinLock/contracts/Lock.sol",
  "compiler": {
    "name": "solc",
    "version": "0.8.4+commit.c7e474f2.Emscripten.clang"
  },
  "schemaVersion": "3.4.1",
  "updatedAt": "2021-07-11T15:14:54.842Z",
  "networkType": "ethereum",
  "devdoc": {
    "details": "A token timelock proxy to create ERC20 token timelock contracts for several addresses.",
    "events": {
      "TokensLocked(address,address,uint256,uint256,address)": {
        "details": "Emitted when the a `locker` locks an `amount` of tokens for  a `beneficiary` until the `releaseTime` through a newly generated  Timelock contract at the address `timelockContractAddress` "
      }
    },
    "kind": "dev",
    "methods": {
      "lockTokens(address,uint256,uint256)": {
        "details": "Creates a new Timelock contract",
        "returns": {
          "_0": "the contract address"
        }
      }
    },
    "version": 1
  },
  "userdoc": {
    "kind": "user",
    "methods": {},
    "version": 1
  }
}